{
  "contractName": "CacheContract",
  "abi": [
    {
      "inputs": [
        {
          "internalType": "uint256",
          "name": "cacheID",
          "type": "uint256"
        }
      ],
      "name": "getCacheDescription",
      "outputs": [
        {
          "internalType": "string",
          "name": "description",
          "type": "string"
        }
      ],
      "stateMutability": "view",
      "type": "function"
    },
    {
      "inputs": [
        {
          "internalType": "uint256",
          "name": "cacheID",
          "type": "uint256"
        }
      ],
      "name": "getCacheGPSCoords",
      "outputs": [
        {
          "internalType": "string",
          "name": "gpsCoord",
          "type": "string"
        }
      ],
      "stateMutability": "view",
      "type": "function"
    },
    {
      "inputs": [
        {
          "internalType": "uint256",
          "name": "cacheID",
          "type": "uint256"
        }
      ],
      "name": "getCacheName",
      "outputs": [
        {
          "internalType": "string",
          "name": "name",
          "type": "string"
        }
      ],
      "stateMutability": "view",
      "type": "function"
    },
    {
      "inputs": [
        {
          "internalType": "uint256",
          "name": "cacheID",
          "type": "uint256"
        }
      ],
      "name": "getCacheProblems",
      "outputs": [
        {
          "components": [
            {
              "internalType": "address",
              "name": "reporter",
              "type": "address"
            },
            {
              "internalType": "string",
              "name": "problem",
              "type": "string"
            }
          ],
          "internalType": "struct GeoCachingContract.Problem[]",
          "name": "problems",
          "type": "tuple[]"
        }
      ],
      "stateMutability": "view",
      "type": "function"
    },
    {
      "inputs": [
        {
          "internalType": "uint256",
          "name": "cacheID",
          "type": "uint256"
        }
      ],
      "name": "getCachePublicKey",
      "outputs": [
        {
          "internalType": "address",
          "name": "publicKey",
          "type": "address"
        }
      ],
      "stateMutability": "view",
      "type": "function"
    },
    {
      "inputs": [
        {
          "internalType": "uint256",
          "name": "cacheID",
          "type": "uint256"
        }
      ],
      "name": "getCacheTrackables",
      "outputs": [
        {
          "internalType": "uint256[]",
          "name": "cachedTrackables",
          "type": "uint256[]"
        }
      ],
      "stateMutability": "view",
      "type": "function"
    },
    {
      "inputs": [
        {
          "internalType": "uint256",
          "name": "cacheID",
          "type": "uint256"
        },
        {
          "internalType": "address",
          "name": "user",
          "type": "address"
        }
      ],
      "name": "getCacheUserHasfound",
      "outputs": [
        {
          "internalType": "bool",
          "name": "hasFound",
          "type": "bool"
        }
      ],
      "stateMutability": "view",
      "type": "function"
    },
    {
      "inputs": [
        {
          "internalType": "address",
          "name": "signedAddress",
          "type": "address"
        }
      ],
      "name": "getEthSignedAddressHash",
      "outputs": [
        {
          "internalType": "bytes32",
          "name": "",
          "type": "bytes32"
        }
      ],
      "stateMutability": "pure",
      "type": "function"
    },
    {
      "inputs": [],
      "name": "getLastCache",
      "outputs": [
        {
          "internalType": "uint256",
          "name": "",
          "type": "uint256"
        }
      ],
      "stateMutability": "view",
      "type": "function"
    },
    {
      "inputs": [
        {
          "internalType": "uint256",
          "name": "trackableID",
          "type": "uint256"
        }
      ],
      "name": "getTrackable",
      "outputs": [
        {
          "components": [
            {
              "internalType": "address",
              "name": "creator",
              "type": "address"
            },
            {
              "internalType": "address",
              "name": "owner",
              "type": "address"
            },
            {
              "internalType": "uint256",
              "name": "cacheID",
              "type": "uint256"
            },
            {
              "internalType": "string",
              "name": "name",
              "type": "string"
            },
            {
              "internalType": "string",
              "name": "description",
              "type": "string"
            }
          ],
          "internalType": "struct GeoCachingContract.Trackable",
          "name": "trackable",
          "type": "tuple"
        }
      ],
      "stateMutability": "view",
      "type": "function"
    },
    {
      "inputs": [
        {
          "internalType": "uint256",
          "name": "trackableID",
          "type": "uint256"
        }
      ],
      "name": "getTrackableOwner",
      "outputs": [
        {
          "internalType": "address",
          "name": "owner",
          "type": "address"
        }
      ],
      "stateMutability": "view",
      "type": "function"
    },
    {
      "inputs": [
        {
          "internalType": "uint256",
          "name": "cacheID",
          "type": "uint256"
        }
      ],
      "name": "isDeletedCache",
      "outputs": [
        {
          "internalType": "bool",
          "name": "result",
          "type": "bool"
        }
      ],
      "stateMutability": "view",
      "type": "function"
    },
    {
      "inputs": [
        {
          "internalType": "uint256",
          "name": "cacheID",
          "type": "uint256"
        }
      ],
      "name": "isUnCreatedCache",
      "outputs": [
        {
          "internalType": "bool",
          "name": "result",
          "type": "bool"
        }
      ],
      "stateMutability": "view",
      "type": "function"
    },
    {
      "inputs": [
        {
          "internalType": "uint256",
          "name": "cacheID",
          "type": "uint256"
        }
      ],
      "name": "isValidCache",
      "outputs": [
        {
          "internalType": "bool",
          "name": "result",
          "type": "bool"
        }
      ],
      "stateMutability": "view",
      "type": "function"
    },
    {
      "inputs": [
        {
          "internalType": "bytes32",
          "name": "ethSignedMessageHash",
          "type": "bytes32"
        },
        {
          "internalType": "bytes",
          "name": "signature",
          "type": "bytes"
        }
      ],
      "name": "recoverSigner",
      "outputs": [
        {
          "internalType": "address",
          "name": "",
          "type": "address"
        }
      ],
      "stateMutability": "pure",
      "type": "function"
    },
    {
      "inputs": [
        {
          "internalType": "bytes",
          "name": "sig",
          "type": "bytes"
        }
      ],
      "name": "splitSignature",
      "outputs": [
        {
          "internalType": "bytes32",
          "name": "r",
          "type": "bytes32"
        },
        {
          "internalType": "bytes32",
          "name": "s",
          "type": "bytes32"
        },
        {
          "internalType": "uint8",
          "name": "v",
          "type": "uint8"
        }
      ],
      "stateMutability": "pure",
      "type": "function"
    },
    {
      "inputs": [
        {
          "internalType": "bytes",
          "name": "signature",
          "type": "bytes"
        },
        {
          "internalType": "address",
          "name": "cachePublicKey",
          "type": "address"
        },
        {
          "internalType": "address",
          "name": "senderAddress",
          "type": "address"
        }
      ],
      "name": "verifySendersAddressSignedWithCacheAddress",
      "outputs": [
        {
          "internalType": "bool",
          "name": "",
          "type": "bool"
        }
      ],
      "stateMutability": "pure",
      "type": "function"
    },
    {
      "inputs": [
        {
          "internalType": "string",
          "name": "name",
          "type": "string"
        },
        {
          "internalType": "string",
          "name": "description",
          "type": "string"
        },
        {
          "internalType": "string",
          "name": "gpsCoord",
          "type": "string"
        },
        {
          "internalType": "address",
          "name": "publicKey",
          "type": "address"
        }
      ],
      "name": "makeCache",
      "outputs": [
        {
          "internalType": "uint256",
          "name": "cacheID",
          "type": "uint256"
        }
      ],
      "stateMutability": "nonpayable",
      "type": "function"
    },
    {
      "inputs": [
        {
          "internalType": "uint256",
          "name": "cacheID",
          "type": "uint256"
        },
        {
          "internalType": "string",
          "name": "name",
          "type": "string"
        },
        {
          "internalType": "string",
          "name": "description",
          "type": "string"
        },
        {
          "internalType": "string",
          "name": "gpsCoord",
          "type": "string"
        },
        {
          "internalType": "address",
          "name": "publicKey",
          "type": "address"
        }
      ],
      "name": "modifyCache",
      "outputs": [],
      "stateMutability": "nonpayable",
      "type": "function"
    },
    {
      "inputs": [
        {
          "internalType": "uint256",
          "name": "cacheID",
          "type": "uint256"
        }
      ],
      "name": "removeCache",
      "outputs": [],
      "stateMutability": "nonpayable",
      "type": "function"
    },
    {
      "inputs": [
        {
          "internalType": "string",
          "name": "problem",
          "type": "string"
        },
        {
          "internalType": "uint256",
          "name": "cacheID",
          "type": "uint256"
        }
      ],
      "name": "reportProblem",
      "outputs": [],
      "stateMutability": "nonpayable",
      "type": "function"
    },
    {
      "inputs": [
        {
          "internalType": "uint256",
          "name": "cacheID",
          "type": "uint256"
        },
        {
          "internalType": "bytes",
          "name": "signature",
          "type": "bytes"
        }
      ],
      "name": "findCache",
      "outputs": [],
      "stateMutability": "nonpayable",
      "type": "function"
    }
  ],
  "bytecode": "0x608060405234801561001057600080fd5b50612287806100206000396000f3fe608060405234801561001057600080fd5b50600436106101425760003560e01c806399889621116100b8578063b7101ced1161007c578063b7101ced14610421578063cd2b57e414610451578063ce50bed314610481578063d1aec3f41461049d578063d7e153d3146104cd578063fa9e084c146104e957610142565b80639988962114610357578063a0cb4acd14610373578063a2e0656c146103a3578063a7bb5803146103d3578063b30b752e1461040557610142565b8063667e14fd1161010a578063667e14fd1461023757806366cdb21d14610267578063725f0c7f1461029757806374f3c2c8146102c7578063914b955f146102f757806397aba7f91461032757610142565b80631efd6f211461014757806324cdc684146101775780633c458a6e146101a75780633e5133a6146101d757806342cd97d314610207575b600080fd5b610161600480360381019061015c9190611437565b610507565b60405161016e91906114fd565b60405180910390f35b610191600480360381019061018c9190611437565b6105ae565b60405161019e919061153a565b60405180910390f35b6101c160048036038101906101bc9190611437565b6105e7565b6040516101ce91906114fd565b60405180910390f35b6101f160048036038101906101ec91906116e8565b61068e565b6040516101fe919061153a565b60405180910390f35b610221600480360381019061021c9190611437565b6106de565b60405161022e9190611766565b60405180910390f35b610251600480360381019061024c9190611822565b61071d565b60405161025e91906118ec565b60405180910390f35b610281600480360381019061027c9190611907565b610834565b60405161028e919061153a565b60405180910390f35b6102b160048036038101906102ac9190611437565b61089e565b6040516102be919061153a565b60405180910390f35b6102e160048036038101906102dc9190611947565b6108d8565b6040516102ee919061198d565b60405180910390f35b610311600480360381019061030c9190611437565b61094d565b60405161031e9190611b00565b60405180910390f35b610341600480360381019061033c9190611b4e565b610aa9565b60405161034e9190611766565b60405180910390f35b610371600480360381019061036c9190611baa565b610b18565b005b61038d60048036038101906103889190611437565b610c8a565b60405161039a9190611766565b60405180910390f35b6103bd60048036038101906103b89190611437565b610cca565b6040516103ca919061153a565b60405180910390f35b6103ed60048036038101906103e89190611c79565b610cd9565b6040516103fc93929190611cde565b60405180910390f35b61041f600480360381019061041a9190611d15565b610d41565b005b61043b60048036038101906104369190611437565b610e28565b60405161044891906114fd565b60405180910390f35b61046b60048036038101906104669190611437565b610ecf565b6040516104789190611e2f565b60405180910390f35b61049b60048036038101906104969190611437565b610f3c565b005b6104b760048036038101906104b29190611437565b611003565b6040516104c49190611ece565b60405180910390f35b6104e760048036038101906104e29190611ef0565b61120a565b005b6104f16112da565b6040516104fe91906118ec565b60405180910390f35b6060600080838152602001908152602001600020600201805461052990611f7b565b80601f016020809104026020016040519081016040528092919081815260200182805461055590611f7b565b80156105a25780601f10610577576101008083540402835291602001916105a2565b820191906000526020600020905b81548152906001019060200180831161058557829003601f168201915b50505050509050919050565b6000600154821080156105e0575060008083815260200190815260200160002060090160009054906101000a900460ff165b9050919050565b6060600080838152602001908152602001600020600101805461060990611f7b565b80601f016020809104026020016040519081016040528092919081815260200182805461063590611f7b565b80156106825780601f1061065757610100808354040283529160200191610682565b820191906000526020600020905b81548152906001019060200180831161066557829003601f168201915b50505050509050919050565b60008061069a836108d8565b90508373ffffffffffffffffffffffffffffffffffffffff166106bd8287610aa9565b73ffffffffffffffffffffffffffffffffffffffff16149150509392505050565b600080600083815260200190815260200160002060040160009054906101000a900473ffffffffffffffffffffffffffffffffffffffff169050919050565b6000806000806001600081548092919061073690611fdb565b9190505581526020019081526020016000209050338160000160006101000a81548173ffffffffffffffffffffffffffffffffffffffff021916908373ffffffffffffffffffffffffffffffffffffffff160217905550858160010190805190602001906107a59291906112ef565b50848160020190805190602001906107be9291906112ef565b50838160030190805190602001906107d79291906112ef565b50828160040160006101000a81548173ffffffffffffffffffffffffffffffffffffffff021916908373ffffffffffffffffffffffffffffffffffffffff160217905550600180546108299190612023565b915050949350505050565b600080600084815260200190815260200160002060050160008373ffffffffffffffffffffffffffffffffffffffff1673ffffffffffffffffffffffffffffffffffffffff16815260200190815260200160002060009054906101000a900460ff16905092915050565b6000600154821080156108d1575060008083815260200190815260200160002060090160009054906101000a900460ff16155b9050919050565b6000816040516020016108eb919061209f565b60405160208183030381529060405260405160200161090a91906120f6565b60405160208183030381529060405280519060200120604051602001610930919061217a565b604051602081830303815290604052805190602001209050919050565b6060600080838152602001908152602001600020600801805480602002602001604051908101604052809291908181526020016000905b82821015610a9e57838290600052602060002090600202016040518060400160405290816000820160009054906101000a900473ffffffffffffffffffffffffffffffffffffffff1673ffffffffffffffffffffffffffffffffffffffff1673ffffffffffffffffffffffffffffffffffffffff168152602001600182018054610a0d90611f7b565b80601f0160208091040260200160405190810160405280929190818152602001828054610a3990611f7b565b8015610a865780601f10610a5b57610100808354040283529160200191610a86565b820191906000526020600020905b815481529060010190602001808311610a6957829003601f168201915b50505050508152505081526020019060010190610984565b505050509050919050565b600080600080610ab885610cd9565b92509250925060018682858560405160008152602001604052604051610ae194939291906121a0565b6020604051602081039080840390855afa158015610b03573d6000803e3d6000fd5b50505060206040510351935050505092915050565b8460008082815260200190815260200160002060000160009054906101000a900473ffffffffffffffffffffffffffffffffffffffff1673ffffffffffffffffffffffffffffffffffffffff163373ffffffffffffffffffffffffffffffffffffffff1614610b8657600080fd5b85610b908161089e565b610b9957600080fd5b60008060008981526020019081526020016000209050338160000160006101000a81548173ffffffffffffffffffffffffffffffffffffffff021916908373ffffffffffffffffffffffffffffffffffffffff16021790555086816001019080519060200190610c0a9291906112ef565b5085816002019080519060200190610c239291906112ef565b5084816003019080519060200190610c3c9291906112ef565b50838160040160006101000a81548173ffffffffffffffffffffffffffffffffffffffff021916908373ffffffffffffffffffffffffffffffffffffffff1602179055505050505050505050565b60006002600083815260200190815260200160002060010160009054906101000a900473ffffffffffffffffffffffffffffffffffffffff169050919050565b60006001548210159050919050565b60008060006041845114610d22576040517f08c379a0000000000000000000000000000000000000000000000000000000008152600401610d1990612231565b60405180910390fd5b6020840151925060408401519150606084015160001a90509193909250565b80610d4b8161089e565b610d5457600080fd5b60008083815260200190815260200160002060080160405180604001604052803373ffffffffffffffffffffffffffffffffffffffff16815260200185815250908060018154018082558091505060019003906000526020600020906002020160009091909190915060008201518160000160006101000a81548173ffffffffffffffffffffffffffffffffffffffff021916908373ffffffffffffffffffffffffffffffffffffffff1602179055506020820151816001019080519060200190610e209291906112ef565b505050505050565b60606000808381526020019081526020016000206003018054610e4a90611f7b565b80601f0160208091040260200160405190810160405280929190818152602001828054610e7690611f7b565b8015610ec35780601f10610e9857610100808354040283529160200191610ec3565b820191906000526020600020905b815481529060010190602001808311610ea657829003601f168201915b50505050509050919050565b6060600080838152602001908152602001600020600601805480602002602001604051908101604052809291908181526020018280548015610f3057602002820191906000526020600020905b815481526020019060010190808311610f1c575b50505050509050919050565b8060008082815260200190815260200160002060000160009054906101000a900473ffffffffffffffffffffffffffffffffffffffff1673ffffffffffffffffffffffffffffffffffffffff163373ffffffffffffffffffffffffffffffffffffffff1614610faa57600080fd5b8160008060008381526020019081526020016000206006018054905014610fd057600080fd5b600160008085815260200190815260200160002060090160006101000a81548160ff021916908315150217905550505050565b61100b611375565b600260008381526020019081526020016000206040518060a00160405290816000820160009054906101000a900473ffffffffffffffffffffffffffffffffffffffff1673ffffffffffffffffffffffffffffffffffffffff1673ffffffffffffffffffffffffffffffffffffffff1681526020016001820160009054906101000a900473ffffffffffffffffffffffffffffffffffffffff1673ffffffffffffffffffffffffffffffffffffffff1673ffffffffffffffffffffffffffffffffffffffff168152602001600282015481526020016003820180546110ef90611f7b565b80601f016020809104026020016040519081016040528092919081815260200182805461111b90611f7b565b80156111685780601f1061113d57610100808354040283529160200191611168565b820191906000526020600020905b81548152906001019060200180831161114b57829003601f168201915b5050505050815260200160048201805461118190611f7b565b80601f01602080910402602001604051908101604052809291908181526020018280546111ad90611f7b565b80156111fa5780601f106111cf576101008083540402835291602001916111fa565b820191906000526020600020905b8154815290600101906020018083116111dd57829003601f168201915b5050505050815250509050919050565b818161124c8160008085815260200190815260200160002060040160009054906101000a900473ffffffffffffffffffffffffffffffffffffffff163361068e565b61125557600080fd5b8361125f8161089e565b61126857600080fd5b600160008087815260200190815260200160002060050160003373ffffffffffffffffffffffffffffffffffffffff1673ffffffffffffffffffffffffffffffffffffffff16815260200190815260200160002060006101000a81548160ff0219169083151502179055505050505050565b6000600180546112ea9190612023565b905090565b8280546112fb90611f7b565b90600052602060002090601f01602090048101928261131d5760008555611364565b82601f1061133657805160ff1916838001178555611364565b82800160010185558215611364579182015b82811115611363578251825591602001919060010190611348565b5b50905061137191906113d0565b5090565b6040518060a00160405280600073ffffffffffffffffffffffffffffffffffffffff168152602001600073ffffffffffffffffffffffffffffffffffffffff1681526020016000815260200160608152602001606081525090565b5b808211156113e95760008160009055506001016113d1565b5090565b6000604051905090565b600080fd5b600080fd5b6000819050919050565b61141481611401565b811461141f57600080fd5b50565b6000813590506114318161140b565b92915050565b60006020828403121561144d5761144c6113f7565b5b600061145b84828501611422565b91505092915050565b600081519050919050565b600082825260208201905092915050565b60005b8381101561149e578082015181840152602081019050611483565b838111156114ad576000848401525b50505050565b6000601f19601f8301169050919050565b60006114cf82611464565b6114d9818561146f565b93506114e9818560208601611480565b6114f2816114b3565b840191505092915050565b6000602082019050818103600083015261151781846114c4565b905092915050565b60008115159050919050565b6115348161151f565b82525050565b600060208201905061154f600083018461152b565b92915050565b600080fd5b600080fd5b7f4e487b7100000000000000000000000000000000000000000000000000000000600052604160045260246000fd5b611597826114b3565b810181811067ffffffffffffffff821117156115b6576115b561155f565b5b80604052505050565b60006115c96113ed565b90506115d5828261158e565b919050565b600067ffffffffffffffff8211156115f5576115f461155f565b5b6115fe826114b3565b9050602081019050919050565b82818337600083830152505050565b600061162d611628846115da565b6115bf565b9050828152602081018484840111156116495761164861155a565b5b61165484828561160b565b509392505050565b600082601f83011261167157611670611555565b5b813561168184826020860161161a565b91505092915050565b600073ffffffffffffffffffffffffffffffffffffffff82169050919050565b60006116b58261168a565b9050919050565b6116c5816116aa565b81146116d057600080fd5b50565b6000813590506116e2816116bc565b92915050565b600080600060608486031215611701576117006113f7565b5b600084013567ffffffffffffffff81111561171f5761171e6113fc565b5b61172b8682870161165c565b935050602061173c868287016116d3565b925050604061174d868287016116d3565b9150509250925092565b611760816116aa565b82525050565b600060208201905061177b6000830184611757565b92915050565b600067ffffffffffffffff82111561179c5761179b61155f565b5b6117a5826114b3565b9050602081019050919050565b60006117c56117c084611781565b6115bf565b9050828152602081018484840111156117e1576117e061155a565b5b6117ec84828561160b565b509392505050565b600082601f83011261180957611808611555565b5b81356118198482602086016117b2565b91505092915050565b6000806000806080858703121561183c5761183b6113f7565b5b600085013567ffffffffffffffff81111561185a576118596113fc565b5b611866878288016117f4565b945050602085013567ffffffffffffffff811115611887576118866113fc565b5b611893878288016117f4565b935050604085013567ffffffffffffffff8111156118b4576118b36113fc565b5b6118c0878288016117f4565b92505060606118d1878288016116d3565b91505092959194509250565b6118e681611401565b82525050565b600060208201905061190160008301846118dd565b92915050565b6000806040838503121561191e5761191d6113f7565b5b600061192c85828601611422565b925050602061193d858286016116d3565b9150509250929050565b60006020828403121561195d5761195c6113f7565b5b600061196b848285016116d3565b91505092915050565b6000819050919050565b61198781611974565b82525050565b60006020820190506119a2600083018461197e565b92915050565b600081519050919050565b600082825260208201905092915050565b6000819050602082019050919050565b6119dd816116aa565b82525050565b600082825260208201905092915050565b60006119ff82611464565b611a0981856119e3565b9350611a19818560208601611480565b611a22816114b3565b840191505092915050565b6000604083016000830151611a4560008601826119d4565b5060208301518482036020860152611a5d82826119f4565b9150508091505092915050565b6000611a768383611a2d565b905092915050565b6000602082019050919050565b6000611a96826119a8565b611aa081856119b3565b935083602082028501611ab2856119c4565b8060005b85811015611aee5784840389528151611acf8582611a6a565b9450611ada83611a7e565b925060208a01995050600181019050611ab6565b50829750879550505050505092915050565b60006020820190508181036000830152611b1a8184611a8b565b905092915050565b611b2b81611974565b8114611b3657600080fd5b50565b600081359050611b4881611b22565b92915050565b60008060408385031215611b6557611b646113f7565b5b6000611b7385828601611b39565b925050602083013567ffffffffffffffff811115611b9457611b936113fc565b5b611ba08582860161165c565b9150509250929050565b600080600080600060a08688031215611bc657611bc56113f7565b5b6000611bd488828901611422565b955050602086013567ffffffffffffffff811115611bf557611bf46113fc565b5b611c01888289016117f4565b945050604086013567ffffffffffffffff811115611c2257611c216113fc565b5b611c2e888289016117f4565b935050606086013567ffffffffffffffff811115611c4f57611c4e6113fc565b5b611c5b888289016117f4565b9250506080611c6c888289016116d3565b9150509295509295909350565b600060208284031215611c8f57611c8e6113f7565b5b600082013567ffffffffffffffff811115611cad57611cac6113fc565b5b611cb98482850161165c565b91505092915050565b600060ff82169050919050565b611cd881611cc2565b82525050565b6000606082019050611cf3600083018661197e565b611d00602083018561197e565b611d0d6040830184611ccf565b949350505050565b60008060408385031215611d2c57611d2b6113f7565b5b600083013567ffffffffffffffff811115611d4a57611d496113fc565b5b611d56858286016117f4565b9250506020611d6785828601611422565b9150509250929050565b600081519050919050565b600082825260208201905092915050565b6000819050602082019050919050565b611da681611401565b82525050565b6000611db88383611d9d565b60208301905092915050565b6000602082019050919050565b6000611ddc82611d71565b611de68185611d7c565b9350611df183611d8d565b8060005b83811015611e22578151611e098882611dac565b9750611e1483611dc4565b925050600181019050611df5565b5085935050505092915050565b60006020820190508181036000830152611e498184611dd1565b905092915050565b600060a083016000830151611e6960008601826119d4565b506020830151611e7c60208601826119d4565b506040830151611e8f6040860182611d9d565b5060608301518482036060860152611ea782826119f4565b91505060808301518482036080860152611ec182826119f4565b9150508091505092915050565b60006020820190508181036000830152611ee88184611e51565b905092915050565b60008060408385031215611f0757611f066113f7565b5b6000611f1585828601611422565b925050602083013567ffffffffffffffff811115611f3657611f356113fc565b5b611f428582860161165c565b9150509250929050565b7f4e487b7100000000000000000000000000000000000000000000000000000000600052602260045260246000fd5b60006002820490506001821680611f9357607f821691505b602082108103611fa657611fa5611f4c565b5b50919050565b7f4e487b7100000000000000000000000000000000000000000000000000000000600052601160045260246000fd5b6000611fe682611401565b91507fffffffffffffffffffffffffffffffffffffffffffffffffffffffffffffffff820361201857612017611fac565b5b600182019050919050565b600061202e82611401565b915061203983611401565b92508282101561204c5761204b611fac565b5b828203905092915050565b60008160601b9050919050565b600061206f82612057565b9050919050565b600061208182612064565b9050919050565b612099612094826116aa565b612076565b82525050565b60006120ab8284612088565b60148201915081905092915050565b600081905092915050565b60006120d082611464565b6120da81856120ba565b93506120ea818560208601611480565b80840191505092915050565b600061210282846120c5565b915081905092915050565b7f19457468657265756d205369676e6564204d6573736167653a0a333200000000600082015250565b6000612143601c836120ba565b915061214e8261210d565b601c82019050919050565b6000819050919050565b61217461216f82611974565b612159565b82525050565b600061218582612136565b91506121918284612163565b60208201915081905092915050565b60006080820190506121b5600083018761197e565b6121c26020830186611ccf565b6121cf604083018561197e565b6121dc606083018461197e565b95945050505050565b7f696e76616c6964207369676e6174757265206c656e6774680000000000000000600082015250565b600061221b60188361146f565b9150612226826121e5565b602082019050919050565b6000602082019050818103600083015261224a8161220e565b905091905056fea26469706673582212207f7ae1ce4d053ae24fbddfbe6a1178c657d6e56fc4eed1f4a2d588b41b7c366464736f6c634300080d0033",
  "immutableReferences": {},
  "source": "// SPDX-License-Identifier: GPL-3.0\npragma solidity >=0.8.0;\npragma solidity <=0.10.0;\nimport \"./GeoCachingContract.sol\";\nimport \"./SignatureVerifyerContract.sol\";\n\ncontract CacheContract is GeoCachingContract, SignatureVerifyerContract{\n    \n    modifier onlyOwnerOfCache(uint cacheID) {\n        require(msg.sender == caches[cacheID].owner);\n        _;\n    }\n\n    modifier onlyCacheEmpty(uint cacheID) {\n        require(caches[cacheID].trackables.length == 0);\n        _;\n    }\n\n    modifier onlyValidSignature(uint cacheID, bytes memory signature){\n        require(verifySendersAddressSignedWithCacheAddress({\n            signature: signature,\n            cachePublicKey: caches[cacheID].publicKey,\n            senderAddress: msg.sender\n            }));\n        _;\n    }\n\n    modifier onlyValidCache(uint cacheID){\n        require(isValidCache(cacheID));\n        _;\n    }\n\n    function makeCache(\n        string memory name,\n        string memory description,\n        string memory gpsCoord,\n        address publicKey\n    ) public returns(uint cacheID){\n        Cache storage newCache = caches[nextIndexCache++];\n        newCache.owner = msg.sender;\n        newCache.name = name;\n        newCache.description = description;\n        newCache.gpsCoord = gpsCoord;\n        newCache.publicKey = publicKey;\n\n        return nextIndexCache - 1;\n    }\n\n    function modifyCache(\n        uint cacheID,\n        string memory name,\n        string memory description,\n        string memory gpsCoord,\n        address publicKey\n    ) public \n    onlyOwnerOfCache(cacheID)\n    onlyValidCache(cacheID){\n        Cache storage modifiedCache = caches[cacheID];\n\n        modifiedCache.owner = msg.sender;\n        modifiedCache.name = name;\n        modifiedCache.description = description;\n        modifiedCache.gpsCoord = gpsCoord;\n        modifiedCache.publicKey = publicKey;\n    }\n    \n    function removeCache(uint cacheID) public \n    onlyOwnerOfCache(cacheID)\n    onlyCacheEmpty(cacheID){\n        caches[cacheID].isDeleted = true;\n    }\n\n    function reportProblem(string memory problem, uint cacheID) public\n    onlyValidCache(cacheID){\n        caches[cacheID].problems.push(Problem(msg.sender, problem));\n    }\n    \n\n    function findCache(uint cacheID, bytes memory signature) public \n    onlyValidSignature(cacheID, signature)\n    onlyValidCache(cacheID){\n        caches[cacheID].finders[msg.sender] = true;\n    }\n\n}",
  "sourcePath": "/Users/derek/Documents/GitHub/blockchain-geocaching-solidity/contracts/CacheContract.sol",
  "compiler": {
    "name": "solc",
    "version": "0.8.13+commit.abaa5c0e.Emscripten.clang"
  },
  "schemaVersion": "3.4.7",
  "updatedAt": "2022-05-01T13:08:54.841Z",
  "devdoc": {
    "kind": "dev",
    "methods": {},
    "version": 1
  },
  "userdoc": {
    "kind": "user",
    "methods": {},
    "version": 1
  }
}