{
  "contractName": "GeoCachingContract",
  "abi": [
    {
      "inputs": [
        {
          "internalType": "uint256",
          "name": "cacheID",
          "type": "uint256"
        }
      ],
      "name": "getCacheName",
      "outputs": [
        {
          "internalType": "string",
          "name": "name",
          "type": "string"
        }
      ],
      "stateMutability": "view",
      "type": "function"
    },
    {
      "inputs": [
        {
          "internalType": "uint256",
          "name": "cacheID",
          "type": "uint256"
        }
      ],
      "name": "getCacheDescription",
      "outputs": [
        {
          "internalType": "string",
          "name": "description",
          "type": "string"
        }
      ],
      "stateMutability": "view",
      "type": "function"
    },
    {
      "inputs": [
        {
          "internalType": "uint256",
          "name": "cacheID",
          "type": "uint256"
        }
      ],
      "name": "getCacheGPSCoords",
      "outputs": [
        {
          "internalType": "string",
          "name": "gpsCoord",
          "type": "string"
        }
      ],
      "stateMutability": "view",
      "type": "function"
    },
    {
      "inputs": [
        {
          "internalType": "uint256",
          "name": "cacheID",
          "type": "uint256"
        }
      ],
      "name": "getCachePublicKey",
      "outputs": [
        {
          "internalType": "address",
          "name": "publicKey",
          "type": "address"
        }
      ],
      "stateMutability": "view",
      "type": "function"
    },
    {
      "inputs": [
        {
          "internalType": "uint256",
          "name": "cacheID",
          "type": "uint256"
        },
        {
          "internalType": "address",
          "name": "user",
          "type": "address"
        }
      ],
      "name": "getCacheUserHasfound",
      "outputs": [
        {
          "internalType": "bool",
          "name": "hasFound",
          "type": "bool"
        }
      ],
      "stateMutability": "view",
      "type": "function"
    },
    {
      "inputs": [
        {
          "internalType": "uint256",
          "name": "cacheID",
          "type": "uint256"
        }
      ],
      "name": "getCacheTrackables",
      "outputs": [
        {
          "internalType": "uint256[]",
          "name": "cachedTrackables",
          "type": "uint256[]"
        }
      ],
      "stateMutability": "view",
      "type": "function"
    },
    {
      "inputs": [
        {
          "internalType": "uint256",
          "name": "cacheID",
          "type": "uint256"
        }
      ],
      "name": "getCacheProblems",
      "outputs": [
        {
          "components": [
            {
              "internalType": "address",
              "name": "reporter",
              "type": "address"
            },
            {
              "internalType": "string",
              "name": "problem",
              "type": "string"
            }
          ],
          "internalType": "struct GeoCachingContract.Problem[]",
          "name": "problems",
          "type": "tuple[]"
        }
      ],
      "stateMutability": "view",
      "type": "function"
    },
    {
      "inputs": [],
      "name": "getLastCache",
      "outputs": [
        {
          "internalType": "uint256",
          "name": "",
          "type": "uint256"
        }
      ],
      "stateMutability": "view",
      "type": "function"
    },
    {
      "inputs": [
        {
          "internalType": "uint256",
          "name": "trackableID",
          "type": "uint256"
        }
      ],
      "name": "getTrackable",
      "outputs": [
        {
          "components": [
            {
              "internalType": "address",
              "name": "creator",
              "type": "address"
            },
            {
              "internalType": "address",
              "name": "owner",
              "type": "address"
            },
            {
              "internalType": "uint256",
              "name": "cacheID",
              "type": "uint256"
            },
            {
              "internalType": "string",
              "name": "name",
              "type": "string"
            },
            {
              "internalType": "string",
              "name": "description",
              "type": "string"
            }
          ],
          "internalType": "struct GeoCachingContract.Trackable",
          "name": "trackable",
          "type": "tuple"
        }
      ],
      "stateMutability": "view",
      "type": "function"
    },
    {
      "inputs": [
        {
          "internalType": "uint256",
          "name": "trackableID",
          "type": "uint256"
        }
      ],
      "name": "getTrackableOwner",
      "outputs": [
        {
          "internalType": "address",
          "name": "owner",
          "type": "address"
        }
      ],
      "stateMutability": "view",
      "type": "function"
    },
    {
      "inputs": [
        {
          "internalType": "uint256",
          "name": "cacheID",
          "type": "uint256"
        }
      ],
      "name": "isDeletedCache",
      "outputs": [
        {
          "internalType": "bool",
          "name": "result",
          "type": "bool"
        }
      ],
      "stateMutability": "view",
      "type": "function"
    },
    {
      "inputs": [
        {
          "internalType": "uint256",
          "name": "cacheID",
          "type": "uint256"
        }
      ],
      "name": "isValidCache",
      "outputs": [
        {
          "internalType": "bool",
          "name": "result",
          "type": "bool"
        }
      ],
      "stateMutability": "view",
      "type": "function"
    },
    {
      "inputs": [
        {
          "internalType": "uint256",
          "name": "cacheID",
          "type": "uint256"
        }
      ],
      "name": "isUnCreatedCache",
      "outputs": [
        {
          "internalType": "bool",
          "name": "result",
          "type": "bool"
        }
      ],
      "stateMutability": "view",
      "type": "function"
    }
  ],
  "bytecode": "0x608060405234801561001057600080fd5b5061110f806100206000396000f3fe608060405234801561001057600080fd5b50600436106100cf5760003560e01c8063914b955f1161008c578063b7101ced11610066578063b7101ced14610284578063cd2b57e4146102b4578063d1aec3f4146102e4578063fa9e084c14610314576100cf565b8063914b955f146101f4578063a0cb4acd14610224578063a2e0656c14610254576100cf565b80631efd6f21146100d457806324cdc684146101045780633c458a6e1461013457806342cd97d31461016457806366cdb21d14610194578063725f0c7f146101c4575b600080fd5b6100ee60048036038101906100e99190610b0d565b610332565b6040516100fb9190610bd3565b60405180910390f35b61011e60048036038101906101199190610b0d565b6103d9565b60405161012b9190610c10565b60405180910390f35b61014e60048036038101906101499190610b0d565b610412565b60405161015b9190610bd3565b60405180910390f35b61017e60048036038101906101799190610b0d565b6104b9565b60405161018b9190610c6c565b60405180910390f35b6101ae60048036038101906101a99190610cb3565b6104f8565b6040516101bb9190610c10565b60405180910390f35b6101de60048036038101906101d99190610b0d565b610562565b6040516101eb9190610c10565b60405180910390f35b61020e60048036038101906102099190610b0d565b61059c565b60405161021b9190610e4b565b60405180910390f35b61023e60048036038101906102399190610b0d565b6106f8565b60405161024b9190610c6c565b60405180910390f35b61026e60048036038101906102699190610b0d565b610738565b60405161027b9190610c10565b60405180910390f35b61029e60048036038101906102999190610b0d565b610747565b6040516102ab9190610bd3565b60405180910390f35b6102ce60048036038101906102c99190610b0d565b6107ee565b6040516102db9190610f2b565b60405180910390f35b6102fe60048036038101906102f99190610b0d565b61085b565b60405161030b9190610fca565b60405180910390f35b61031c610a62565b6040516103299190610ffb565b60405180910390f35b6060600080838152602001908152602001600020600201805461035490611045565b80601f016020809104026020016040519081016040528092919081815260200182805461038090611045565b80156103cd5780601f106103a2576101008083540402835291602001916103cd565b820191906000526020600020905b8154815290600101906020018083116103b057829003601f168201915b50505050509050919050565b60006001548210801561040b575060008083815260200190815260200160002060090160009054906101000a900460ff165b9050919050565b6060600080838152602001908152602001600020600101805461043490611045565b80601f016020809104026020016040519081016040528092919081815260200182805461046090611045565b80156104ad5780601f10610482576101008083540402835291602001916104ad565b820191906000526020600020905b81548152906001019060200180831161049057829003601f168201915b50505050509050919050565b600080600083815260200190815260200160002060040160009054906101000a900473ffffffffffffffffffffffffffffffffffffffff169050919050565b600080600084815260200190815260200160002060050160008373ffffffffffffffffffffffffffffffffffffffff1673ffffffffffffffffffffffffffffffffffffffff16815260200190815260200160002060009054906101000a900460ff16905092915050565b600060015482108015610595575060008083815260200190815260200160002060090160009054906101000a900460ff16155b9050919050565b6060600080838152602001908152602001600020600801805480602002602001604051908101604052809291908181526020016000905b828210156106ed57838290600052602060002090600202016040518060400160405290816000820160009054906101000a900473ffffffffffffffffffffffffffffffffffffffff1673ffffffffffffffffffffffffffffffffffffffff1673ffffffffffffffffffffffffffffffffffffffff16815260200160018201805461065c90611045565b80601f016020809104026020016040519081016040528092919081815260200182805461068890611045565b80156106d55780601f106106aa576101008083540402835291602001916106d5565b820191906000526020600020905b8154815290600101906020018083116106b857829003601f168201915b505050505081525050815260200190600101906105d3565b505050509050919050565b60006002600083815260200190815260200160002060010160009054906101000a900473ffffffffffffffffffffffffffffffffffffffff169050919050565b60006001548210159050919050565b6060600080838152602001908152602001600020600301805461076990611045565b80601f016020809104026020016040519081016040528092919081815260200182805461079590611045565b80156107e25780601f106107b7576101008083540402835291602001916107e2565b820191906000526020600020905b8154815290600101906020018083116107c557829003601f168201915b50505050509050919050565b606060008083815260200190815260200160002060060180548060200260200160405190810160405280929190818152602001828054801561084f57602002820191906000526020600020905b81548152602001906001019080831161083b575b50505050509050919050565b610863610a77565b600260008381526020019081526020016000206040518060a00160405290816000820160009054906101000a900473ffffffffffffffffffffffffffffffffffffffff1673ffffffffffffffffffffffffffffffffffffffff1673ffffffffffffffffffffffffffffffffffffffff1681526020016001820160009054906101000a900473ffffffffffffffffffffffffffffffffffffffff1673ffffffffffffffffffffffffffffffffffffffff1673ffffffffffffffffffffffffffffffffffffffff1681526020016002820154815260200160038201805461094790611045565b80601f016020809104026020016040519081016040528092919081815260200182805461097390611045565b80156109c05780601f10610995576101008083540402835291602001916109c0565b820191906000526020600020905b8154815290600101906020018083116109a357829003601f168201915b505050505081526020016004820180546109d990611045565b80601f0160208091040260200160405190810160405280929190818152602001828054610a0590611045565b8015610a525780601f10610a2757610100808354040283529160200191610a52565b820191906000526020600020905b815481529060010190602001808311610a3557829003601f168201915b5050505050815250509050919050565b600060018054610a7291906110a5565b905090565b6040518060a00160405280600073ffffffffffffffffffffffffffffffffffffffff168152602001600073ffffffffffffffffffffffffffffffffffffffff1681526020016000815260200160608152602001606081525090565b600080fd5b6000819050919050565b610aea81610ad7565b8114610af557600080fd5b50565b600081359050610b0781610ae1565b92915050565b600060208284031215610b2357610b22610ad2565b5b6000610b3184828501610af8565b91505092915050565b600081519050919050565b600082825260208201905092915050565b60005b83811015610b74578082015181840152602081019050610b59565b83811115610b83576000848401525b50505050565b6000601f19601f8301169050919050565b6000610ba582610b3a565b610baf8185610b45565b9350610bbf818560208601610b56565b610bc881610b89565b840191505092915050565b60006020820190508181036000830152610bed8184610b9a565b905092915050565b60008115159050919050565b610c0a81610bf5565b82525050565b6000602082019050610c256000830184610c01565b92915050565b600073ffffffffffffffffffffffffffffffffffffffff82169050919050565b6000610c5682610c2b565b9050919050565b610c6681610c4b565b82525050565b6000602082019050610c816000830184610c5d565b92915050565b610c9081610c4b565b8114610c9b57600080fd5b50565b600081359050610cad81610c87565b92915050565b60008060408385031215610cca57610cc9610ad2565b5b6000610cd885828601610af8565b9250506020610ce985828601610c9e565b9150509250929050565b600081519050919050565b600082825260208201905092915050565b6000819050602082019050919050565b610d2881610c4b565b82525050565b600082825260208201905092915050565b6000610d4a82610b3a565b610d548185610d2e565b9350610d64818560208601610b56565b610d6d81610b89565b840191505092915050565b6000604083016000830151610d906000860182610d1f565b5060208301518482036020860152610da88282610d3f565b9150508091505092915050565b6000610dc18383610d78565b905092915050565b6000602082019050919050565b6000610de182610cf3565b610deb8185610cfe565b935083602082028501610dfd85610d0f565b8060005b85811015610e395784840389528151610e1a8582610db5565b9450610e2583610dc9565b925060208a01995050600181019050610e01565b50829750879550505050505092915050565b60006020820190508181036000830152610e658184610dd6565b905092915050565b600081519050919050565b600082825260208201905092915050565b6000819050602082019050919050565b610ea281610ad7565b82525050565b6000610eb48383610e99565b60208301905092915050565b6000602082019050919050565b6000610ed882610e6d565b610ee28185610e78565b9350610eed83610e89565b8060005b83811015610f1e578151610f058882610ea8565b9750610f1083610ec0565b925050600181019050610ef1565b5085935050505092915050565b60006020820190508181036000830152610f458184610ecd565b905092915050565b600060a083016000830151610f656000860182610d1f565b506020830151610f786020860182610d1f565b506040830151610f8b6040860182610e99565b5060608301518482036060860152610fa38282610d3f565b91505060808301518482036080860152610fbd8282610d3f565b9150508091505092915050565b60006020820190508181036000830152610fe48184610f4d565b905092915050565b610ff581610ad7565b82525050565b60006020820190506110106000830184610fec565b92915050565b7f4e487b7100000000000000000000000000000000000000000000000000000000600052602260045260246000fd5b6000600282049050600182168061105d57607f821691505b6020821081036110705761106f611016565b5b50919050565b7f4e487b7100000000000000000000000000000000000000000000000000000000600052601160045260246000fd5b60006110b082610ad7565b91506110bb83610ad7565b9250828210156110ce576110cd611076565b5b82820390509291505056fea2646970667358221220e1a6fa7d690f003d2d208c82582f7fe022357f8f726a0551140b006e88f2d9c964736f6c634300080d0033",
  "immutableReferences": {},
  "source": "// SPDX-License-Identifier: GPL-3.0\npragma solidity >=0.8.0;\npragma solidity <=0.10.0;\n\ncontract GeoCachingContract{\n    mapping(uint=>Cache) caches;\n    uint nextIndexCache;\n    mapping(uint => Trackable) trackables;\n    uint nextIndexTrackable;\n    mapping(address => TarackableCollection) ownerToTrackables;\n\n    //getters for cache\n    function getCacheName(uint cacheID) public view\n    returns(string memory name){\n        return caches[cacheID].name;\n    }\n\n    function getCacheDescription(uint cacheID) public view\n    returns(string memory description){\n        return caches[cacheID].description;\n    }\n    function getCacheGPSCoords(uint cacheID) public view\n    returns(string memory gpsCoord){\n        return caches[cacheID].gpsCoord;\n    }\n    function getCachePublicKey(uint cacheID) public view\n    returns(address publicKey){\n        return caches[cacheID].publicKey;\n    }\n    function getCacheUserHasfound(uint cacheID, address user) public view\n    returns(bool hasFound){\n        return caches[cacheID].finders[user];\n    }\n\n    function getCacheTrackables(uint cacheID) public view\n    returns(uint[] memory cachedTrackables){\n        return caches[cacheID].trackables;\n    }\n\n    function getCacheProblems(uint cacheID) public view\n    returns(Problem[] memory problems){\n        return caches[cacheID].problems;\n    }\n\n    function getLastCache() public view\n    returns(uint){\n        return nextIndexCache - 1;\n    }\n\n    //getters for trackable\n    function getTrackable(uint trackableID) public view\n    returns(Trackable memory trackable){\n        return trackables[trackableID];\n    }\n\n    function getTrackableOwner(uint trackableID)public view\n    returns(address owner){\n        return trackables[trackableID].owner;\n    }\n\n    struct Problem{\n        address reporter;\n        string problem;\n    }\n\n    struct Trackable{\n        address creator;\n        address owner;\n        uint cacheID;\n        string name;\n        string description;\n    }\n    function isInCacheTrackable(uint trackableID) internal view returns(bool result){\n       return trackables[trackableID].owner == address(0) && trackableID < nextIndexTrackable;\n    }\n    function isAtOwnerTrackable(uint trackableID) internal view returns(bool result){\n       return trackables[trackableID].owner != address(0) && trackableID < nextIndexTrackable;\n    }\n    function isUnCreatedTrackable(uint trackableID) internal view returns(bool result){\n       return trackableID >= nextIndexTrackable;\n    }\n\n    struct TarackableCollection{\n        mapping(uint => bool) collectedTrackables;\n    }\n\n    struct Cache{\n        address owner;\n        string name;\n        string description;\n        string gpsCoord;\n        address publicKey;\n\n        mapping(address => bool) finders;\n\n        uint[] trackables;\n        mapping(uint => uint) trackableToArrayIndex;\n\n        Problem[] problems;\n        \n        bool isDeleted;\n    }\n    function isDeletedCache(uint cacheID) public view returns(bool result){\n        return(cacheID < nextIndexCache && caches[cacheID].isDeleted);\n    }\n    function isValidCache(uint cacheID)public view returns(bool result){\n        return(cacheID < nextIndexCache && !caches[cacheID].isDeleted);\n    }\n    function isUnCreatedCache(uint cacheID)public view returns(bool result){\n        return(cacheID >= nextIndexCache);\n    }\n\n\n//INTERNAL!!!!!\n    function addTrackableToCache(uint trackableID, uint cacheID) internal{\n        Cache storage modifiedCache = caches[cacheID];\n\n        modifiedCache.trackables.push(trackableID);\n        modifiedCache.trackableToArrayIndex[trackableID] = modifiedCache.trackables.length - 1;\n    }\n\n    function removeTrackableFromCache(uint trackableID, uint cacheID) internal{\n        Cache storage modifiedCache = caches[cacheID];\n\n        uint potentialIndex = modifiedCache.trackableToArrayIndex[trackableID];\n        require(modifiedCache.trackables[potentialIndex] == trackableID);\n        //index is good\n\n        uint last = modifiedCache.trackables[modifiedCache.trackables.length - 1];\n        modifiedCache.trackables[potentialIndex] = last;\n        modifiedCache.trackableToArrayIndex[last] = potentialIndex;\n\n        modifiedCache.trackables.pop();\n    }\n\n}\n",
  "sourcePath": "/Users/derek/Documents/GitHub/blockchain-geocaching-solidity/contracts/GeoCachingContract.sol",
  "compiler": {
    "name": "solc",
    "version": "0.8.13+commit.abaa5c0e.Emscripten.clang"
  },
  "schemaVersion": "3.4.7",
  "updatedAt": "2022-05-01T13:08:54.857Z",
  "devdoc": {
    "kind": "dev",
    "methods": {},
    "version": 1
  },
  "userdoc": {
    "kind": "user",
    "methods": {},
    "version": 1
  }
}