{
  "contractName": "SignatureVerifyerContract",
  "abi": [
    {
      "inputs": [
        {
          "internalType": "bytes",
          "name": "signature",
          "type": "bytes"
        },
        {
          "internalType": "address",
          "name": "cachePublicKey",
          "type": "address"
        },
        {
          "internalType": "address",
          "name": "senderAddress",
          "type": "address"
        }
      ],
      "name": "verifySendersAddressSignedWithCacheAddress",
      "outputs": [
        {
          "internalType": "bool",
          "name": "",
          "type": "bool"
        }
      ],
      "stateMutability": "pure",
      "type": "function"
    },
    {
      "inputs": [
        {
          "internalType": "address",
          "name": "signedAddress",
          "type": "address"
        }
      ],
      "name": "getEthSignedAddressHash",
      "outputs": [
        {
          "internalType": "bytes32",
          "name": "",
          "type": "bytes32"
        }
      ],
      "stateMutability": "pure",
      "type": "function"
    },
    {
      "inputs": [
        {
          "internalType": "bytes32",
          "name": "ethSignedMessageHash",
          "type": "bytes32"
        },
        {
          "internalType": "bytes",
          "name": "signature",
          "type": "bytes"
        }
      ],
      "name": "recoverSigner",
      "outputs": [
        {
          "internalType": "address",
          "name": "",
          "type": "address"
        }
      ],
      "stateMutability": "pure",
      "type": "function"
    },
    {
      "inputs": [
        {
          "internalType": "bytes",
          "name": "sig",
          "type": "bytes"
        }
      ],
      "name": "splitSignature",
      "outputs": [
        {
          "internalType": "bytes32",
          "name": "r",
          "type": "bytes32"
        },
        {
          "internalType": "bytes32",
          "name": "s",
          "type": "bytes32"
        },
        {
          "internalType": "uint8",
          "name": "v",
          "type": "uint8"
        }
      ],
      "stateMutability": "pure",
      "type": "function"
    }
  ],
  "bytecode": "0x608060405234801561001057600080fd5b5061093a806100206000396000f3fe608060405234801561001057600080fd5b506004361061004c5760003560e01c80633e5133a61461005157806374f3c2c81461008157806397aba7f9146100b1578063a7bb5803146100e1575b600080fd5b61006b60048036038101906100669190610467565b610113565b60405161007891906104f1565b60405180910390f35b61009b6004803603810190610096919061050c565b610163565b6040516100a89190610552565b60405180910390f35b6100cb60048036038101906100c69190610599565b6101d8565b6040516100d89190610604565b60405180910390f35b6100fb60048036038101906100f6919061061f565b610247565b60405161010a93929190610684565b60405180910390f35b60008061011f83610163565b90508373ffffffffffffffffffffffffffffffffffffffff1661014282876101d8565b73ffffffffffffffffffffffffffffffffffffffff16149150509392505050565b6000816040516020016101769190610703565b6040516020818303038152906040526040516020016101959190610798565b604051602081830303815290604052805190602001206040516020016101bb919061081c565b604051602081830303815290604052805190602001209050919050565b6000806000806101e785610247565b925092509250600186828585604051600081526020016040526040516102109493929190610842565b6020604051602081039080840390855afa158015610232573d6000803e3d6000fd5b50505060206040510351935050505092915050565b60008060006041845114610290576040517f08c379a0000000000000000000000000000000000000000000000000000000008152600401610287906108e4565b60405180910390fd5b6020840151925060408401519150606084015160001a90509193909250565b6000604051905090565b600080fd5b600080fd5b600080fd5b600080fd5b6000601f19601f8301169050919050565b7f4e487b7100000000000000000000000000000000000000000000000000000000600052604160045260246000fd5b610316826102cd565b810181811067ffffffffffffffff82111715610335576103346102de565b5b80604052505050565b60006103486102af565b9050610354828261030d565b919050565b600067ffffffffffffffff821115610374576103736102de565b5b61037d826102cd565b9050602081019050919050565b82818337600083830152505050565b60006103ac6103a784610359565b61033e565b9050828152602081018484840111156103c8576103c76102c8565b5b6103d384828561038a565b509392505050565b600082601f8301126103f0576103ef6102c3565b5b8135610400848260208601610399565b91505092915050565b600073ffffffffffffffffffffffffffffffffffffffff82169050919050565b600061043482610409565b9050919050565b61044481610429565b811461044f57600080fd5b50565b6000813590506104618161043b565b92915050565b6000806000606084860312156104805761047f6102b9565b5b600084013567ffffffffffffffff81111561049e5761049d6102be565b5b6104aa868287016103db565b93505060206104bb86828701610452565b92505060406104cc86828701610452565b9150509250925092565b60008115159050919050565b6104eb816104d6565b82525050565b600060208201905061050660008301846104e2565b92915050565b600060208284031215610522576105216102b9565b5b600061053084828501610452565b91505092915050565b6000819050919050565b61054c81610539565b82525050565b60006020820190506105676000830184610543565b92915050565b61057681610539565b811461058157600080fd5b50565b6000813590506105938161056d565b92915050565b600080604083850312156105b0576105af6102b9565b5b60006105be85828601610584565b925050602083013567ffffffffffffffff8111156105df576105de6102be565b5b6105eb858286016103db565b9150509250929050565b6105fe81610429565b82525050565b600060208201905061061960008301846105f5565b92915050565b600060208284031215610635576106346102b9565b5b600082013567ffffffffffffffff811115610653576106526102be565b5b61065f848285016103db565b91505092915050565b600060ff82169050919050565b61067e81610668565b82525050565b60006060820190506106996000830186610543565b6106a66020830185610543565b6106b36040830184610675565b949350505050565b60008160601b9050919050565b60006106d3826106bb565b9050919050565b60006106e5826106c8565b9050919050565b6106fd6106f882610429565b6106da565b82525050565b600061070f82846106ec565b60148201915081905092915050565b600081519050919050565b600081905092915050565b60005b83811015610752578082015181840152602081019050610737565b83811115610761576000848401525b50505050565b60006107728261071e565b61077c8185610729565b935061078c818560208601610734565b80840191505092915050565b60006107a48284610767565b915081905092915050565b7f19457468657265756d205369676e6564204d6573736167653a0a333200000000600082015250565b60006107e5601c83610729565b91506107f0826107af565b601c82019050919050565b6000819050919050565b61081661081182610539565b6107fb565b82525050565b6000610827826107d8565b91506108338284610805565b60208201915081905092915050565b60006080820190506108576000830187610543565b6108646020830186610675565b6108716040830185610543565b61087e6060830184610543565b95945050505050565b600082825260208201905092915050565b7f696e76616c6964207369676e6174757265206c656e6774680000000000000000600082015250565b60006108ce601883610887565b91506108d982610898565b602082019050919050565b600060208201905081810360008301526108fd816108c1565b905091905056fea264697066735822122041a27067f1d90760f3ae4e605c8b191963e6edc6da235608def28a4767e6841264736f6c634300080d0033",
  "immutableReferences": {},
  "source": "// SPDX-License-Identifier: GPL-3.0\npragma solidity >=0.8.0;\npragma solidity <=0.10.0;\n\ncontract SignatureVerifyerContract{\n     function verifySendersAddressSignedWithCacheAddress(\n        bytes memory signature,\n        address cachePublicKey,\n        address senderAddress\n    ) public pure returns (bool) {\n        bytes32 ethSignedAddressHash = getEthSignedAddressHash(senderAddress);\n        return recoverSigner(ethSignedAddressHash, signature) == cachePublicKey;\n    }\n\n    function getEthSignedAddressHash(address signedAddress)\n        public pure returns (bytes32)\n    {\n        return\n            keccak256(\n                abi.encodePacked(\n                    \"\\x19Ethereum Signed Message:\\n32\", \n                    keccak256(abi.encodePacked(string(abi.encodePacked(signedAddress)))))\n            );\n    }\n\n    function recoverSigner(bytes32 ethSignedMessageHash, bytes memory signature)\n        public\n        pure\n        returns (address)\n    {\n        (bytes32 r, bytes32 s, uint8 v) = splitSignature(signature);\n        return ecrecover(ethSignedMessageHash, v, r, s);\n    }\n\n    function splitSignature(bytes memory sig)\n        public\n        pure\n        returns (\n            bytes32 r,\n            bytes32 s,\n            uint8 v\n        )\n    {\n        require(sig.length == 65, \"invalid signature length\");\n        assembly {\n            r := mload(add(sig, 32))\n            s := mload(add(sig, 64))\n            v := byte(0, mload(add(sig, 96)))\n        }\n    }\n\n}",
  "sourcePath": "/Users/derek/Documents/GitHub/blockchain-geocaching-solidity/contracts/SignatureVerifyerContract.sol",
  "compiler": {
    "name": "solc",
    "version": "0.8.13+commit.abaa5c0e.Emscripten.clang"
  },
  "schemaVersion": "3.4.7",
  "updatedAt": "2022-05-01T12:06:21.805Z",
  "devdoc": {
    "kind": "dev",
    "methods": {},
    "version": 1
  },
  "userdoc": {
    "kind": "user",
    "methods": {},
    "version": 1
  }
}