{
  "contractName": "TrackableContract",
  "abi": [
    {
      "inputs": [
        {
          "internalType": "uint256",
          "name": "cacheID",
          "type": "uint256"
        },
        {
          "internalType": "bytes",
          "name": "signature",
          "type": "bytes"
        }
      ],
      "name": "findCache",
      "outputs": [],
      "stateMutability": "nonpayable",
      "type": "function"
    },
    {
      "inputs": [
        {
          "internalType": "uint256",
          "name": "cacheID",
          "type": "uint256"
        }
      ],
      "name": "getCacheDescription",
      "outputs": [
        {
          "internalType": "string",
          "name": "description",
          "type": "string"
        }
      ],
      "stateMutability": "view",
      "type": "function"
    },
    {
      "inputs": [
        {
          "internalType": "uint256",
          "name": "cacheID",
          "type": "uint256"
        }
      ],
      "name": "getCacheGPSCoords",
      "outputs": [
        {
          "internalType": "string",
          "name": "gpsCoord",
          "type": "string"
        }
      ],
      "stateMutability": "view",
      "type": "function"
    },
    {
      "inputs": [
        {
          "internalType": "uint256",
          "name": "cacheID",
          "type": "uint256"
        }
      ],
      "name": "getCacheName",
      "outputs": [
        {
          "internalType": "string",
          "name": "name",
          "type": "string"
        }
      ],
      "stateMutability": "view",
      "type": "function"
    },
    {
      "inputs": [
        {
          "internalType": "uint256",
          "name": "cacheID",
          "type": "uint256"
        }
      ],
      "name": "getCacheProblems",
      "outputs": [
        {
          "components": [
            {
              "internalType": "address",
              "name": "reporter",
              "type": "address"
            },
            {
              "internalType": "string",
              "name": "problem",
              "type": "string"
            }
          ],
          "internalType": "struct GeoCachingContract.Problem[]",
          "name": "problems",
          "type": "tuple[]"
        }
      ],
      "stateMutability": "view",
      "type": "function"
    },
    {
      "inputs": [
        {
          "internalType": "uint256",
          "name": "cacheID",
          "type": "uint256"
        }
      ],
      "name": "getCachePublicKey",
      "outputs": [
        {
          "internalType": "address",
          "name": "publicKey",
          "type": "address"
        }
      ],
      "stateMutability": "view",
      "type": "function"
    },
    {
      "inputs": [
        {
          "internalType": "uint256",
          "name": "cacheID",
          "type": "uint256"
        }
      ],
      "name": "getCacheTrackables",
      "outputs": [
        {
          "internalType": "uint256[]",
          "name": "cachedTrackables",
          "type": "uint256[]"
        }
      ],
      "stateMutability": "view",
      "type": "function"
    },
    {
      "inputs": [
        {
          "internalType": "uint256",
          "name": "cacheID",
          "type": "uint256"
        },
        {
          "internalType": "address",
          "name": "user",
          "type": "address"
        }
      ],
      "name": "getCacheUserHasfound",
      "outputs": [
        {
          "internalType": "bool",
          "name": "hasFound",
          "type": "bool"
        }
      ],
      "stateMutability": "view",
      "type": "function"
    },
    {
      "inputs": [
        {
          "internalType": "address",
          "name": "signedAddress",
          "type": "address"
        }
      ],
      "name": "getEthSignedAddressHash",
      "outputs": [
        {
          "internalType": "bytes32",
          "name": "",
          "type": "bytes32"
        }
      ],
      "stateMutability": "pure",
      "type": "function"
    },
    {
      "inputs": [],
      "name": "getLastCache",
      "outputs": [
        {
          "internalType": "uint256",
          "name": "",
          "type": "uint256"
        }
      ],
      "stateMutability": "view",
      "type": "function"
    },
    {
      "inputs": [
        {
          "internalType": "uint256",
          "name": "trackableID",
          "type": "uint256"
        }
      ],
      "name": "getTrackable",
      "outputs": [
        {
          "components": [
            {
              "internalType": "address",
              "name": "creator",
              "type": "address"
            },
            {
              "internalType": "address",
              "name": "owner",
              "type": "address"
            },
            {
              "internalType": "uint256",
              "name": "cacheID",
              "type": "uint256"
            },
            {
              "internalType": "string",
              "name": "name",
              "type": "string"
            },
            {
              "internalType": "string",
              "name": "description",
              "type": "string"
            }
          ],
          "internalType": "struct GeoCachingContract.Trackable",
          "name": "trackable",
          "type": "tuple"
        }
      ],
      "stateMutability": "view",
      "type": "function"
    },
    {
      "inputs": [
        {
          "internalType": "uint256",
          "name": "trackableID",
          "type": "uint256"
        }
      ],
      "name": "getTrackableOwner",
      "outputs": [
        {
          "internalType": "address",
          "name": "owner",
          "type": "address"
        }
      ],
      "stateMutability": "view",
      "type": "function"
    },
    {
      "inputs": [
        {
          "internalType": "uint256",
          "name": "cacheID",
          "type": "uint256"
        }
      ],
      "name": "isDeletedCache",
      "outputs": [
        {
          "internalType": "bool",
          "name": "result",
          "type": "bool"
        }
      ],
      "stateMutability": "view",
      "type": "function"
    },
    {
      "inputs": [
        {
          "internalType": "uint256",
          "name": "cacheID",
          "type": "uint256"
        }
      ],
      "name": "isUnCreatedCache",
      "outputs": [
        {
          "internalType": "bool",
          "name": "result",
          "type": "bool"
        }
      ],
      "stateMutability": "view",
      "type": "function"
    },
    {
      "inputs": [
        {
          "internalType": "uint256",
          "name": "cacheID",
          "type": "uint256"
        }
      ],
      "name": "isValidCache",
      "outputs": [
        {
          "internalType": "bool",
          "name": "result",
          "type": "bool"
        }
      ],
      "stateMutability": "view",
      "type": "function"
    },
    {
      "inputs": [
        {
          "internalType": "string",
          "name": "name",
          "type": "string"
        },
        {
          "internalType": "string",
          "name": "description",
          "type": "string"
        },
        {
          "internalType": "string",
          "name": "gpsCoord",
          "type": "string"
        },
        {
          "internalType": "address",
          "name": "publicKey",
          "type": "address"
        }
      ],
      "name": "makeCache",
      "outputs": [
        {
          "internalType": "uint256",
          "name": "cacheID",
          "type": "uint256"
        }
      ],
      "stateMutability": "nonpayable",
      "type": "function"
    },
    {
      "inputs": [
        {
          "internalType": "uint256",
          "name": "cacheID",
          "type": "uint256"
        },
        {
          "internalType": "string",
          "name": "name",
          "type": "string"
        },
        {
          "internalType": "string",
          "name": "description",
          "type": "string"
        },
        {
          "internalType": "string",
          "name": "gpsCoord",
          "type": "string"
        },
        {
          "internalType": "address",
          "name": "publicKey",
          "type": "address"
        }
      ],
      "name": "modifyCache",
      "outputs": [],
      "stateMutability": "nonpayable",
      "type": "function"
    },
    {
      "inputs": [
        {
          "internalType": "bytes32",
          "name": "ethSignedMessageHash",
          "type": "bytes32"
        },
        {
          "internalType": "bytes",
          "name": "signature",
          "type": "bytes"
        }
      ],
      "name": "recoverSigner",
      "outputs": [
        {
          "internalType": "address",
          "name": "",
          "type": "address"
        }
      ],
      "stateMutability": "pure",
      "type": "function"
    },
    {
      "inputs": [
        {
          "internalType": "uint256",
          "name": "cacheID",
          "type": "uint256"
        }
      ],
      "name": "removeCache",
      "outputs": [],
      "stateMutability": "nonpayable",
      "type": "function"
    },
    {
      "inputs": [
        {
          "internalType": "string",
          "name": "problem",
          "type": "string"
        },
        {
          "internalType": "uint256",
          "name": "cacheID",
          "type": "uint256"
        }
      ],
      "name": "reportProblem",
      "outputs": [],
      "stateMutability": "nonpayable",
      "type": "function"
    },
    {
      "inputs": [
        {
          "internalType": "bytes",
          "name": "sig",
          "type": "bytes"
        }
      ],
      "name": "splitSignature",
      "outputs": [
        {
          "internalType": "bytes32",
          "name": "r",
          "type": "bytes32"
        },
        {
          "internalType": "bytes32",
          "name": "s",
          "type": "bytes32"
        },
        {
          "internalType": "uint8",
          "name": "v",
          "type": "uint8"
        }
      ],
      "stateMutability": "pure",
      "type": "function"
    },
    {
      "inputs": [
        {
          "internalType": "bytes",
          "name": "signature",
          "type": "bytes"
        },
        {
          "internalType": "address",
          "name": "cachePublicKey",
          "type": "address"
        },
        {
          "internalType": "address",
          "name": "senderAddress",
          "type": "address"
        }
      ],
      "name": "verifySendersAddressSignedWithCacheAddress",
      "outputs": [
        {
          "internalType": "bool",
          "name": "",
          "type": "bool"
        }
      ],
      "stateMutability": "pure",
      "type": "function"
    },
    {
      "inputs": [
        {
          "internalType": "string",
          "name": "name",
          "type": "string"
        },
        {
          "internalType": "string",
          "name": "description",
          "type": "string"
        }
      ],
      "name": "makeTrackable",
      "outputs": [
        {
          "internalType": "uint256",
          "name": "",
          "type": "uint256"
        }
      ],
      "stateMutability": "nonpayable",
      "type": "function"
    },
    {
      "inputs": [
        {
          "internalType": "uint256",
          "name": "trackableID",
          "type": "uint256"
        },
        {
          "internalType": "uint256",
          "name": "cacheID",
          "type": "uint256"
        }
      ],
      "name": "putTrackable",
      "outputs": [],
      "stateMutability": "nonpayable",
      "type": "function"
    },
    {
      "inputs": [
        {
          "internalType": "uint256",
          "name": "trackableID",
          "type": "uint256"
        },
        {
          "internalType": "uint256",
          "name": "cacheID",
          "type": "uint256"
        }
      ],
      "name": "takeTrackable",
      "outputs": [],
      "stateMutability": "nonpayable",
      "type": "function"
    }
  ],
  "bytecode": "0x608060405234801561001057600080fd5b50612af4806100206000396000f3fe608060405234801561001057600080fd5b50600436106101735760003560e01c806399889621116100de578063cd2b57e411610097578063d1aec3f411610071578063d1aec3f414610506578063d703e53014610536578063d7e153d314610566578063fa9e084c1461058257610173565b8063cd2b57e41461049e578063ce50bed3146104ce578063d196116e146104ea57610173565b806399889621146103a4578063a0cb4acd146103c0578063a2e0656c146103f0578063a7bb580314610420578063b30b752e14610452578063b7101ced1461046e57610173565b8063667e14fd11610130578063667e14fd1461028457806366cdb21d146102b4578063725f0c7f146102e457806374f3c2c814610314578063914b955f1461034457806397aba7f91461037457610173565b80631caad7dd146101785780631efd6f211461019457806324cdc684146101c45780633c458a6e146101f45780633e5133a61461022457806342cd97d314610254575b600080fd5b610192600480360381019061018d9190611b8e565b6105a0565b005b6101ae60048036038101906101a99190611bce565b610722565b6040516101bb9190611c94565b60405180910390f35b6101de60048036038101906101d99190611bce565b6107c9565b6040516101eb9190611cd1565b60405180910390f35b61020e60048036038101906102099190611bce565b610802565b60405161021b9190611c94565b60405180910390f35b61023e60048036038101906102399190611e7f565b6108a9565b60405161024b9190611cd1565b60405180910390f35b61026e60048036038101906102699190611bce565b6108f9565b60405161027b9190611efd565b60405180910390f35b61029e60048036038101906102999190611fb9565b610938565b6040516102ab9190612083565b60405180910390f35b6102ce60048036038101906102c9919061209e565b610a4f565b6040516102db9190611cd1565b60405180910390f35b6102fe60048036038101906102f99190611bce565b610ab9565b60405161030b9190611cd1565b60405180910390f35b61032e600480360381019061032991906120de565b610af3565b60405161033b9190612124565b60405180910390f35b61035e60048036038101906103599190611bce565b610b68565b60405161036b9190612297565b60405180910390f35b61038e600480360381019061038991906122e5565b610cc4565b60405161039b9190611efd565b60405180910390f35b6103be60048036038101906103b99190612341565b610d33565b005b6103da60048036038101906103d59190611bce565b610ea5565b6040516103e79190611efd565b60405180910390f35b61040a60048036038101906104059190611bce565b610ee5565b6040516104179190611cd1565b60405180910390f35b61043a60048036038101906104359190612410565b610ef4565b60405161044993929190612475565b60405180910390f35b61046c600480360381019061046791906124ac565b610f5c565b005b61048860048036038101906104839190611bce565b611043565b6040516104959190611c94565b60405180910390f35b6104b860048036038101906104b39190611bce565b6110ea565b6040516104c591906125c6565b60405180910390f35b6104e860048036038101906104e39190611bce565b611157565b005b61050460048036038101906104ff9190611b8e565b61121e565b005b610520600480360381019061051b9190611bce565b6113f8565b60405161052d9190612665565b60405180910390f35b610550600480360381019061054b9190612687565b6115ff565b60405161055d9190612083565b60405180910390f35b610580600480360381019061057b91906126ff565b61176f565b005b61058a61183f565b6040516105979190612083565b60405180910390f35b81816105ab81610ab9565b80156105bc57506105bb82611854565b5b80156105dd5750806002600084815260200190815260200160002060020154145b6105e657600080fd5b8260008082815260200190815260200160002060050160003373ffffffffffffffffffffffffffffffffffffffff1673ffffffffffffffffffffffffffffffffffffffff16815260200190815260200160002060009054906101000a900460ff1661065057600080fd5b61065a85856118cf565b336002600087815260200190815260200160002060010160006101000a81548173ffffffffffffffffffffffffffffffffffffffff021916908373ffffffffffffffffffffffffffffffffffffffff1602179055506001600460003373ffffffffffffffffffffffffffffffffffffffff1673ffffffffffffffffffffffffffffffffffffffff168152602001908152602001600020600001600087815260200190815260200160002060006101000a81548160ff0219169083151502179055505050505050565b606060008083815260200190815260200160002060020180546107449061278a565b80601f01602080910402602001604051908101604052809291908181526020018280546107709061278a565b80156107bd5780601f10610792576101008083540402835291602001916107bd565b820191906000526020600020905b8154815290600101906020018083116107a057829003601f168201915b50505050509050919050565b6000600154821080156107fb575060008083815260200190815260200160002060090160009054906101000a900460ff165b9050919050565b606060008083815260200190815260200160002060010180546108249061278a565b80601f01602080910402602001604051908101604052809291908181526020018280546108509061278a565b801561089d5780601f106108725761010080835404028352916020019161089d565b820191906000526020600020905b81548152906001019060200180831161088057829003601f168201915b50505050509050919050565b6000806108b583610af3565b90508373ffffffffffffffffffffffffffffffffffffffff166108d88287610cc4565b73ffffffffffffffffffffffffffffffffffffffff16149150509392505050565b600080600083815260200190815260200160002060040160009054906101000a900473ffffffffffffffffffffffffffffffffffffffff169050919050565b60008060008060016000815480929190610951906127ea565b9190505581526020019081526020016000209050338160000160006101000a81548173ffffffffffffffffffffffffffffffffffffffff021916908373ffffffffffffffffffffffffffffffffffffffff160217905550858160010190805190602001906109c0929190611a46565b50848160020190805190602001906109d9929190611a46565b50838160030190805190602001906109f2929190611a46565b50828160040160006101000a81548173ffffffffffffffffffffffffffffffffffffffff021916908373ffffffffffffffffffffffffffffffffffffffff16021790555060018054610a449190612832565b915050949350505050565b600080600084815260200190815260200160002060050160008373ffffffffffffffffffffffffffffffffffffffff1673ffffffffffffffffffffffffffffffffffffffff16815260200190815260200160002060009054906101000a900460ff16905092915050565b600060015482108015610aec575060008083815260200190815260200160002060090160009054906101000a900460ff16155b9050919050565b600081604051602001610b0691906128ae565b604051602081830303815290604052604051602001610b259190612905565b60405160208183030381529060405280519060200120604051602001610b4b9190612989565b604051602081830303815290604052805190602001209050919050565b6060600080838152602001908152602001600020600801805480602002602001604051908101604052809291908181526020016000905b82821015610cb957838290600052602060002090600202016040518060400160405290816000820160009054906101000a900473ffffffffffffffffffffffffffffffffffffffff1673ffffffffffffffffffffffffffffffffffffffff1673ffffffffffffffffffffffffffffffffffffffff168152602001600182018054610c289061278a565b80601f0160208091040260200160405190810160405280929190818152602001828054610c549061278a565b8015610ca15780601f10610c7657610100808354040283529160200191610ca1565b820191906000526020600020905b815481529060010190602001808311610c8457829003601f168201915b50505050508152505081526020019060010190610b9f565b505050509050919050565b600080600080610cd385610ef4565b92509250925060018682858560405160008152602001604052604051610cfc94939291906129af565b6020604051602081039080840390855afa158015610d1e573d6000803e3d6000fd5b50505060206040510351935050505092915050565b8460008082815260200190815260200160002060000160009054906101000a900473ffffffffffffffffffffffffffffffffffffffff1673ffffffffffffffffffffffffffffffffffffffff163373ffffffffffffffffffffffffffffffffffffffff1614610da157600080fd5b85610dab81610ab9565b610db457600080fd5b60008060008981526020019081526020016000209050338160000160006101000a81548173ffffffffffffffffffffffffffffffffffffffff021916908373ffffffffffffffffffffffffffffffffffffffff16021790555086816001019080519060200190610e25929190611a46565b5085816002019080519060200190610e3e929190611a46565b5084816003019080519060200190610e57929190611a46565b50838160040160006101000a81548173ffffffffffffffffffffffffffffffffffffffff021916908373ffffffffffffffffffffffffffffffffffffffff1602179055505050505050505050565b60006002600083815260200190815260200160002060010160009054906101000a900473ffffffffffffffffffffffffffffffffffffffff169050919050565b60006001548210159050919050565b60008060006041845114610f3d576040517f08c379a0000000000000000000000000000000000000000000000000000000008152600401610f3490612a40565b60405180910390fd5b6020840151925060408401519150606084015160001a90509193909250565b80610f6681610ab9565b610f6f57600080fd5b60008083815260200190815260200160002060080160405180604001604052803373ffffffffffffffffffffffffffffffffffffffff16815260200185815250908060018154018082558091505060019003906000526020600020906002020160009091909190915060008201518160000160006101000a81548173ffffffffffffffffffffffffffffffffffffffff021916908373ffffffffffffffffffffffffffffffffffffffff160217905550602082015181600101908051906020019061103b929190611a46565b505050505050565b606060008083815260200190815260200160002060030180546110659061278a565b80601f01602080910402602001604051908101604052809291908181526020018280546110919061278a565b80156110de5780601f106110b3576101008083540402835291602001916110de565b820191906000526020600020905b8154815290600101906020018083116110c157829003601f168201915b50505050509050919050565b606060008083815260200190815260200160002060060180548060200260200160405190810160405280929190818152602001828054801561114b57602002820191906000526020600020905b815481526020019060010190808311611137575b50505050509050919050565b8060008082815260200190815260200160002060000160009054906101000a900473ffffffffffffffffffffffffffffffffffffffff1673ffffffffffffffffffffffffffffffffffffffff163373ffffffffffffffffffffffffffffffffffffffff16146111c557600080fd5b81600080600083815260200190815260200160002060060180549050146111eb57600080fd5b600160008085815260200190815260200160002060090160006101000a81548160ff021916908315150217905550505050565b816002600082815260200190815260200160002060010160009054906101000a900473ffffffffffffffffffffffffffffffffffffffff1673ffffffffffffffffffffffffffffffffffffffff163373ffffffffffffffffffffffffffffffffffffffff161461128d57600080fd5b8161129781610ab9565b6112a057600080fd5b8260008082815260200190815260200160002060050160003373ffffffffffffffffffffffffffffffffffffffff1673ffffffffffffffffffffffffffffffffffffffff16815260200190815260200160002060009054906101000a900460ff1661130a57600080fd5b61131485856119d3565b60006002600087815260200190815260200160002060010160006101000a81548173ffffffffffffffffffffffffffffffffffffffff021916908373ffffffffffffffffffffffffffffffffffffffff1602179055508360026000878152602001908152602001600020600201819055506000600460003373ffffffffffffffffffffffffffffffffffffffff1673ffffffffffffffffffffffffffffffffffffffff168152602001908152602001600020600001600086815260200190815260200160002060006101000a81548160ff0219169083151502179055505050505050565b611400611acc565b600260008381526020019081526020016000206040518060a00160405290816000820160009054906101000a900473ffffffffffffffffffffffffffffffffffffffff1673ffffffffffffffffffffffffffffffffffffffff1673ffffffffffffffffffffffffffffffffffffffff1681526020016001820160009054906101000a900473ffffffffffffffffffffffffffffffffffffffff1673ffffffffffffffffffffffffffffffffffffffff1673ffffffffffffffffffffffffffffffffffffffff168152602001600282015481526020016003820180546114e49061278a565b80601f01602080910402602001604051908101604052809291908181526020018280546115109061278a565b801561155d5780601f106115325761010080835404028352916020019161155d565b820191906000526020600020905b81548152906001019060200180831161154057829003601f168201915b505050505081526020016004820180546115769061278a565b80601f01602080910402602001604051908101604052809291908181526020018280546115a29061278a565b80156115ef5780601f106115c4576101008083540402835291602001916115ef565b820191906000526020600020905b8154815290600101906020018083116115d257829003601f168201915b5050505050815250509050919050565b6000806002600060035481526020019081526020016000209050338160000160006101000a81548173ffffffffffffffffffffffffffffffffffffffff021916908373ffffffffffffffffffffffffffffffffffffffff160217905550338160010160006101000a81548173ffffffffffffffffffffffffffffffffffffffff021916908373ffffffffffffffffffffffffffffffffffffffff160217905550838160030190805190602001906116b7929190611a46565b50828160040190805190602001906116d0929190611a46565b506001600460003373ffffffffffffffffffffffffffffffffffffffff1673ffffffffffffffffffffffffffffffffffffffff1681526020019081526020016000206000016000600354815260200190815260200160002060006101000a81548160ff02191690831515021790555060036000815480929190611752906127ea565b919050555060016003546117669190612832565b91505092915050565b81816117b18160008085815260200190815260200160002060040160009054906101000a900473ffffffffffffffffffffffffffffffffffffffff16336108a9565b6117ba57600080fd5b836117c481610ab9565b6117cd57600080fd5b600160008087815260200190815260200160002060050160003373ffffffffffffffffffffffffffffffffffffffff1673ffffffffffffffffffffffffffffffffffffffff16815260200190815260200160002060006101000a81548160ff0219169083151502179055505050505050565b60006001805461184f9190612832565b905090565b60008073ffffffffffffffffffffffffffffffffffffffff166002600084815260200190815260200160002060010160009054906101000a900473ffffffffffffffffffffffffffffffffffffffff1673ffffffffffffffffffffffffffffffffffffffff161480156118c8575060035482105b9050919050565b6000806000838152602001908152602001600020905060008160070160008581526020019081526020016000205490508382600601828154811061191657611915612a60565b5b90600052602060002001541461192b57600080fd5b600082600601600184600601805490506119459190612832565b8154811061195657611955612a60565b5b906000526020600020015490508083600601838154811061197a57611979612a60565b5b90600052602060002001819055508183600701600083815260200190815260200160002081905550826006018054806119b6576119b5612a8f565b5b600190038181906000526020600020016000905590555050505050565b600080600083815260200190815260200160002090508060060183908060018154018082558091505060019003906000526020600020016000909190919091505560018160060180549050611a289190612832565b81600701600085815260200190815260200160002081905550505050565b828054611a529061278a565b90600052602060002090601f016020900481019282611a745760008555611abb565b82601f10611a8d57805160ff1916838001178555611abb565b82800160010185558215611abb579182015b82811115611aba578251825591602001919060010190611a9f565b5b509050611ac89190611b27565b5090565b6040518060a00160405280600073ffffffffffffffffffffffffffffffffffffffff168152602001600073ffffffffffffffffffffffffffffffffffffffff1681526020016000815260200160608152602001606081525090565b5b80821115611b40576000816000905550600101611b28565b5090565b6000604051905090565b600080fd5b600080fd5b6000819050919050565b611b6b81611b58565b8114611b7657600080fd5b50565b600081359050611b8881611b62565b92915050565b60008060408385031215611ba557611ba4611b4e565b5b6000611bb385828601611b79565b9250506020611bc485828601611b79565b9150509250929050565b600060208284031215611be457611be3611b4e565b5b6000611bf284828501611b79565b91505092915050565b600081519050919050565b600082825260208201905092915050565b60005b83811015611c35578082015181840152602081019050611c1a565b83811115611c44576000848401525b50505050565b6000601f19601f8301169050919050565b6000611c6682611bfb565b611c708185611c06565b9350611c80818560208601611c17565b611c8981611c4a565b840191505092915050565b60006020820190508181036000830152611cae8184611c5b565b905092915050565b60008115159050919050565b611ccb81611cb6565b82525050565b6000602082019050611ce66000830184611cc2565b92915050565b600080fd5b600080fd5b7f4e487b7100000000000000000000000000000000000000000000000000000000600052604160045260246000fd5b611d2e82611c4a565b810181811067ffffffffffffffff82111715611d4d57611d4c611cf6565b5b80604052505050565b6000611d60611b44565b9050611d6c8282611d25565b919050565b600067ffffffffffffffff821115611d8c57611d8b611cf6565b5b611d9582611c4a565b9050602081019050919050565b82818337600083830152505050565b6000611dc4611dbf84611d71565b611d56565b905082815260208101848484011115611de057611ddf611cf1565b5b611deb848285611da2565b509392505050565b600082601f830112611e0857611e07611cec565b5b8135611e18848260208601611db1565b91505092915050565b600073ffffffffffffffffffffffffffffffffffffffff82169050919050565b6000611e4c82611e21565b9050919050565b611e5c81611e41565b8114611e6757600080fd5b50565b600081359050611e7981611e53565b92915050565b600080600060608486031215611e9857611e97611b4e565b5b600084013567ffffffffffffffff811115611eb657611eb5611b53565b5b611ec286828701611df3565b9350506020611ed386828701611e6a565b9250506040611ee486828701611e6a565b9150509250925092565b611ef781611e41565b82525050565b6000602082019050611f126000830184611eee565b92915050565b600067ffffffffffffffff821115611f3357611f32611cf6565b5b611f3c82611c4a565b9050602081019050919050565b6000611f5c611f5784611f18565b611d56565b905082815260208101848484011115611f7857611f77611cf1565b5b611f83848285611da2565b509392505050565b600082601f830112611fa057611f9f611cec565b5b8135611fb0848260208601611f49565b91505092915050565b60008060008060808587031215611fd357611fd2611b4e565b5b600085013567ffffffffffffffff811115611ff157611ff0611b53565b5b611ffd87828801611f8b565b945050602085013567ffffffffffffffff81111561201e5761201d611b53565b5b61202a87828801611f8b565b935050604085013567ffffffffffffffff81111561204b5761204a611b53565b5b61205787828801611f8b565b925050606061206887828801611e6a565b91505092959194509250565b61207d81611b58565b82525050565b60006020820190506120986000830184612074565b92915050565b600080604083850312156120b5576120b4611b4e565b5b60006120c385828601611b79565b92505060206120d485828601611e6a565b9150509250929050565b6000602082840312156120f4576120f3611b4e565b5b600061210284828501611e6a565b91505092915050565b6000819050919050565b61211e8161210b565b82525050565b60006020820190506121396000830184612115565b92915050565b600081519050919050565b600082825260208201905092915050565b6000819050602082019050919050565b61217481611e41565b82525050565b600082825260208201905092915050565b600061219682611bfb565b6121a0818561217a565b93506121b0818560208601611c17565b6121b981611c4a565b840191505092915050565b60006040830160008301516121dc600086018261216b565b50602083015184820360208601526121f4828261218b565b9150508091505092915050565b600061220d83836121c4565b905092915050565b6000602082019050919050565b600061222d8261213f565b612237818561214a565b9350836020820285016122498561215b565b8060005b8581101561228557848403895281516122668582612201565b945061227183612215565b925060208a0199505060018101905061224d565b50829750879550505050505092915050565b600060208201905081810360008301526122b18184612222565b905092915050565b6122c28161210b565b81146122cd57600080fd5b50565b6000813590506122df816122b9565b92915050565b600080604083850312156122fc576122fb611b4e565b5b600061230a858286016122d0565b925050602083013567ffffffffffffffff81111561232b5761232a611b53565b5b61233785828601611df3565b9150509250929050565b600080600080600060a0868803121561235d5761235c611b4e565b5b600061236b88828901611b79565b955050602086013567ffffffffffffffff81111561238c5761238b611b53565b5b61239888828901611f8b565b945050604086013567ffffffffffffffff8111156123b9576123b8611b53565b5b6123c588828901611f8b565b935050606086013567ffffffffffffffff8111156123e6576123e5611b53565b5b6123f288828901611f8b565b925050608061240388828901611e6a565b9150509295509295909350565b60006020828403121561242657612425611b4e565b5b600082013567ffffffffffffffff81111561244457612443611b53565b5b61245084828501611df3565b91505092915050565b600060ff82169050919050565b61246f81612459565b82525050565b600060608201905061248a6000830186612115565b6124976020830185612115565b6124a46040830184612466565b949350505050565b600080604083850312156124c3576124c2611b4e565b5b600083013567ffffffffffffffff8111156124e1576124e0611b53565b5b6124ed85828601611f8b565b92505060206124fe85828601611b79565b9150509250929050565b600081519050919050565b600082825260208201905092915050565b6000819050602082019050919050565b61253d81611b58565b82525050565b600061254f8383612534565b60208301905092915050565b6000602082019050919050565b600061257382612508565b61257d8185612513565b935061258883612524565b8060005b838110156125b95781516125a08882612543565b97506125ab8361255b565b92505060018101905061258c565b5085935050505092915050565b600060208201905081810360008301526125e08184612568565b905092915050565b600060a083016000830151612600600086018261216b565b506020830151612613602086018261216b565b5060408301516126266040860182612534565b506060830151848203606086015261263e828261218b565b91505060808301518482036080860152612658828261218b565b9150508091505092915050565b6000602082019050818103600083015261267f81846125e8565b905092915050565b6000806040838503121561269e5761269d611b4e565b5b600083013567ffffffffffffffff8111156126bc576126bb611b53565b5b6126c885828601611f8b565b925050602083013567ffffffffffffffff8111156126e9576126e8611b53565b5b6126f585828601611f8b565b9150509250929050565b6000806040838503121561271657612715611b4e565b5b600061272485828601611b79565b925050602083013567ffffffffffffffff81111561274557612744611b53565b5b61275185828601611df3565b9150509250929050565b7f4e487b7100000000000000000000000000000000000000000000000000000000600052602260045260246000fd5b600060028204905060018216806127a257607f821691505b6020821081036127b5576127b461275b565b5b50919050565b7f4e487b7100000000000000000000000000000000000000000000000000000000600052601160045260246000fd5b60006127f582611b58565b91507fffffffffffffffffffffffffffffffffffffffffffffffffffffffffffffffff8203612827576128266127bb565b5b600182019050919050565b600061283d82611b58565b915061284883611b58565b92508282101561285b5761285a6127bb565b5b828203905092915050565b60008160601b9050919050565b600061287e82612866565b9050919050565b600061289082612873565b9050919050565b6128a86128a382611e41565b612885565b82525050565b60006128ba8284612897565b60148201915081905092915050565b600081905092915050565b60006128df82611bfb565b6128e981856128c9565b93506128f9818560208601611c17565b80840191505092915050565b600061291182846128d4565b915081905092915050565b7f19457468657265756d205369676e6564204d6573736167653a0a333200000000600082015250565b6000612952601c836128c9565b915061295d8261291c565b601c82019050919050565b6000819050919050565b61298361297e8261210b565b612968565b82525050565b600061299482612945565b91506129a08284612972565b60208201915081905092915050565b60006080820190506129c46000830187612115565b6129d16020830186612466565b6129de6040830185612115565b6129eb6060830184612115565b95945050505050565b7f696e76616c6964207369676e6174757265206c656e6774680000000000000000600082015250565b6000612a2a601883611c06565b9150612a35826129f4565b602082019050919050565b60006020820190508181036000830152612a5981612a1d565b9050919050565b7f4e487b7100000000000000000000000000000000000000000000000000000000600052603260045260246000fd5b7f4e487b7100000000000000000000000000000000000000000000000000000000600052603160045260246000fdfea26469706673582212201960d764269f55e98a929520e99512cb24707bdd9468f6d97517891b69f9e23764736f6c634300080d0033",
  "immutableReferences": {},
  "source": "// SPDX-License-Identifier: GPL-3.0\npragma solidity >=0.8.0;\npragma solidity <=0.10.0;\nimport \"./GeoCachingContract.sol\";\nimport \"./CacheContract.sol\";\n\ncontract TrackableContract is CacheContract{\n\n    modifier onlyOwnerOfTrackable(uint trackableID) {\n        require(msg.sender == trackables[trackableID].owner);\n        _;\n    }\n\n    modifier onlyTrackableInCache(uint trackableID, uint cacheID) {\n        require(\n            isValidCache(cacheID)\n            && isInCacheTrackable(trackableID)\n            && trackables[trackableID].cacheID == cacheID\n        );\n        _;\n    }\n\n    modifier onlyIfSenderAlreadyFoundCache(uint cacheID) {\n        require(caches[cacheID].finders[msg.sender]);\n        _;\n    }\n\n\n    function makeTrackable (\n        string memory name,\n        string memory description\n    ) public returns (uint){\n        Trackable storage newTrackable  = trackables[nextIndexTrackable];\n\n        newTrackable.creator = msg.sender;\n        newTrackable.owner = msg.sender;\n        newTrackable.name = name;\n        newTrackable.description = description;\n\n        ownerToTrackables[msg.sender].collectedTrackables[nextIndexTrackable] = true;\n\n        nextIndexTrackable++;\n        return nextIndexTrackable - 1;\n    }\n\n    function putTrackable(uint trackableID, uint cacheID) public\n    onlyOwnerOfTrackable(trackableID)\n    onlyValidCache(cacheID)\n    onlyIfSenderAlreadyFoundCache(cacheID){\n\n        addTrackableToCache(trackableID, cacheID);\n\n        trackables[trackableID].owner = address(0);\n        trackables[trackableID].cacheID = cacheID;\n\n        ownerToTrackables[msg.sender].collectedTrackables[cacheID] = false;\n    }\n\n    function takeTrackable(uint trackableID, uint cacheID) public \n    onlyTrackableInCache(trackableID, cacheID)\n    onlyIfSenderAlreadyFoundCache(cacheID){\n\n        removeTrackableFromCache(trackableID, cacheID);\n\n        trackables[trackableID].owner = msg.sender;\n\n        ownerToTrackables[msg.sender].collectedTrackables[trackableID] = true;\n    }\n\n}",
  "sourcePath": "/Users/derek/Documents/GitHub/blockchain-geocaching-solidity/contracts/TrackableContract.sol",
  "compiler": {
    "name": "solc",
    "version": "0.8.13+commit.abaa5c0e.Emscripten.clang"
  },
  "schemaVersion": "3.4.7",
  "updatedAt": "2022-05-01T13:08:54.871Z",
  "devdoc": {
    "kind": "dev",
    "methods": {},
    "version": 1
  },
  "userdoc": {
    "kind": "user",
    "methods": {},
    "version": 1
  }
}